:020000040000FA
:1000000020112020D5000000D9000000DB000000F6
:1000100000000000000000000000000000000000E0
:10002000000000000000000000000000DD000000F3
:100030000000000000000000DF000000E100000000
:10004000E3000000B9120000E3000000E30000003C
:10005000E3000000E3000000E3000000E300000014
:1000600000000000E3000000E300000000000000CA
:1000700000000000E3000000E3000000E3000000D7
:1000800029210000E3000000E3000000E30000007D
:10009000E3000000E300000000000000000000009A
:1000A000E3000000E300000000000000000000008A
:1000B000E300000000000000E3000000E300000097
:1000C0000348854600F084F900480047BD2300003E
:1000D0002011202003480047FEE7FEE7FEE7FEE789
:1000E000FEE7FEE7C1000000F8B502464A40D40F23
:1000F00042004B0052085B089A4202D20246084670
:1001000011464A0023D0C30D4A00DDB2120EAD1ACB
:10011000202D35DA49020126490AF6058A19002CF4
:1001200000D0524220214F1B1146B9402A411018DD
:10013000C20D9A4221D0002C17D0012D08DCDA051F
:10014000801AD20F8019D207DBB200F008F9F8BD8F
:10015000DA05801A012340001B06C01880185A4295
:100160008018CA0F1043490007E04908C20711432D
:10017000DA05801A80194008801800F0E8F8F8BD08
:1001800061000122511A001BF7E70122D2075140FA
:10019000AAE70122D2075040A6E7024670B54A40BE
:1001A000D30FDB0740002DD04A002AD0010E140ED9
:1001B000000212020919400A520A8418E501044695
:1001C0005443000A120A2E045043A4194219200C69
:1001D000C543AA18120C0125AD03521C5219120472
:1001E0007F39240400D0521C104301D44000491E22
:1001F000C2B20C06C0092018401C4008802A02D058
:1002000003E0002070BD40084000002900DA002013
:10021000184370BD70B502464A40D50F40004A00F1
:10022000ED0740085208002814D0002A12D0C40D4F
:10023000D30D41020120C0055202490A520AE41AB4
:10024000091812187D34914201D3641C00E0490062
:10025000002C01DA002070BD0023914201D3891ADD
:100260000343400849000028F7D100290AD09142F1
:1002700002D10121C90705E0914201D2012101E02B
:100280000121C943E005C018401900F060F870BDB5
:100290000122D207002800DB101A002900DB511AC6
:1002A000814201D801207047002070470122D20707
:1002B000002800DB101A002900DB511A814201D30B
:1002C0000120704700207047C217C10F504010B581
:1002D0004018CA079623002100F041F810BDC20F54
:1002E000410040020123400ADB05D207090EC01875
:1002F0007F2901DA00207047962903DC9623591ADA
:10030000C84001E096398840002AF4D04042704746
:1003100070B50446002903D000202022012310E0FC
:10032000002801D00020C043C046C0460DE025464D
:10033000D5408D4205D30D469540641B1D46954022
:1003400040191546521E002DF1DC214670BD0029D2
:1003500004DA401C490001D140084000704770B4E5
:100360000024050C05D11024000402D1002921D05D
:100370001124050E01D100020834050F01D100013E
:10038000241D850F01D18000A41C002801DB400042
:10039000641C002908D020252E1B0D46F540A140E5
:1003A00000D001212943084301061B1B000ADB1D65
:1003B00002D5002070BC7047DB0518188018002992
:1003C000F8DA401C4900F5D170BC40084000704785
:1003D0001CB5094800900948019005460126009C7B
:1003E00005E0E36807CC33430C3C98471034AC423B
:1003F000F7D3FFF769FE0000802D0000A02D00005C
:1004000080B582B0012041052B4800F097F9411ECC
:100410008841019029480068002812D0FFE7019820
:1004200001280ED1FFE726480068002809D1FFE720
:1004300024490868401C086001F070FE22490860E9
:10044000FFE701981E49086001F068FE1E4909682F
:10045000401A1E49884219D3FFE71A48006801284C
:1004600014DBFFE71748006804280ADBFFE715499B
:100470000020086016490868401C086001F058FB1D
:1004800003E0104900200860FFE7FFE7104800681C
:100490001049096888420DDBFFE708480021016028
:1004A000084601F097FD0C4A03200123194601F08C
:1004B000ECFAFFE702B080BD00000A4040002020B7
:1004C000280020204400202018012020B90B000023
:1004D0004800202010002020722D000082B00190E2
:1004E0000199881E001F00BFFCD2009002B0704727
:1004F00084B00390029101920398006800900098E4
:1005000001998843009000980299019A114008438C
:100510000399086004B0704784B00390029101927F
:100520000398006800900098019988430090009813
:100530000299019A114008430399086004B070477A
:1005400084B0039002910192039800680090009893
:1005500001998843009000980299019A114008433C
:100560000399086004B0704784B00390029101922F
:1005700003980068009000980199884300900098C3
:100580000299019A114008430399086004B070472A
:1005900084B0039002910192039800680090009843
:1005A00001998843009000980299019A11400843EC
:1005B0000399086004B0704782B001900091009BDD
:1005C0000199094A88581843885002B07047C046BC
:1005D00082B001900091009B0199034A885818430A
:1005E000885002B07047C0464810000082B00190A9
:1005F00000910098019995225201885002B07047ED
:1006000082B0019000910098019995225201885082
:1006100002B0704781B0009000988100464A885827
:1006200001235B061843885001B0704782B00190E7
:100630000091009B0199034A88581843885002B0E2
:100640007047C0462810000082B0019000910098C9
:100650000199024A885002B07047C046D01200008B
:1006600081B0009000990120C2026B48885001B00F
:100670007047C04682B001900091019802494058ED
:100680000099084002B070473810000010B584B0DF
:10069000069C0390029101920093029801990843ED
:1006A00000990843069908430349084303998900C0
:1006B000214A885004B010BD8100040081B0009030
:1006C000009881001C4A8120885001B07047C046C4
:1006D00082B0019000910098104908430199890067
:1006E000154A885002B0704710B584B0079C069C2C
:1006F0000390029101920093029801990843009996
:100700000843069908430799084304490843039995
:100710008900094A885004B010BDC046800004001A
:1007200082B00190009100988021084301998900CE
:10073000014A885002B070470480424082B0019064
:10074000009101982721C90140580099084002B042
:10075000704782B00190009101982721C90140584B
:100760000099084002B0704782B001900091019852
:100770002721C90140580099084002B07047000085
:1007800081B0009000994A4A4A48885001B07047A9
:1007900082B00190009100980199024A885002B0FD
:1007A0007047C0469012000082B001900091009BFB
:1007B00001999D20420188581843885002B0704723
:1007C00081B00090009909204202885801231B0241
:1007D0001843885001B0704781B000900099084AD2
:1007E000885801231843885001B0704781B00090A9
:1007F0000099034A885804231843885001B0704771
:100800002812000081B0009000990120C202024825
:10081000885001B07047C0460100002680B584B002
:100820000390029101A80280694600200880FFE73A
:100830006846008801A90988884215DAFFE703980D
:1008400000F020F8002808D1FFE7039802996A46D3
:100850001288895C00F0C0F800E005E0FFE700982E
:10086000401C69460880E3E76846008804B080BD04
:1008700081B0009000980249405801B07047C046CE
:100880001812000081B000900098044940580F21D0
:10089000090208404142484101B070473C12000043
:1008A00081B000900099024A0248885001B0704718
:1008B00004080000030000B181B000900099444A90
:1008C0000020885001B0704780B584B00191014686
:1008D0000198039102A90880039809225202801806
:1008E000098803225202FFF703FE04B080BD000016
:1008F00080B582B001900091019809494018009993
:1009000009780C22FFF730FE0198012109034018F5
:10091000009949780722FFF727FE02B080BDC04644
:100920000410000080B584B0019101460198039144
:1009300002A9088003980D4A80180988072212022C
:10094000FFF7D6FD04B080BD80B584B001910146AB
:100950000198039102A908700398044A8018097845
:100960000722FFF7C5FD04B080BDC0463812000065
:1009700082B001906846017000780199014A885060
:1009800002B070472412000010B586B001920246F2
:1009900001980592049103AA107002A8038005989B
:1009A000094940180499490012781143074AFFF792
:1009B000EFFD05980649401802990904C91D054A2A
:1009C000FFF7E6FD06B010BD10120000FF070000A3
:1009D000141200000700FF0F82B0019068460170FA
:1009E0000078019991225201885002B070470000AE
:1009F000F0B584B001242202344B1968039291436C
:100A000019605A490D686D04FCD5457E25409E69E4
:100A1000A64374199C612024045D03252C40DE69E3
:100A2000AE433419DC611F4C256805262660466AF2
:100A300037681F6276685E6207262E402660C469AA
:100A40007F252D02DE69AE436406640C3419DC6137
:100A50000768456882680092C66802690192426927
:100A600002929A69104C14403A07120B2D03ADB252
:100A7000AA183243009D2D072D0D1543019A1543E9
:100A8000029A1543007E2843084A024010199861D3
:100A90001868039A1043186008688005FCD504B0F4
:100AA000F0BDC046001340408D00F0FF72FF0F0004
:100AB00006490868012290430860704703490868A6
:100AC00001221202904308607047C04608010B40A3
:100AD0002549086801221203104308607047C04688
:100AE00081B001466846017000780249086001B093
:100AF0007047C04608030B4080B582B0014601A88C
:100B0000018001880F2002021748FFF7F1FC02B0B4
:100B100080BDC04680B582B0014601A80170017851
:100B200002480322FFF7E4FC02B080BD00010B4045
:100B300080B582B0014601A8017001780A483022D0
:100B4000FFF7D6FC02B080BD0749886007480268FD
:100B50009202FCD5012212040B6813430B6001685A
:100B6000C906FCD57047C04604010B4004020B4087
:100B700009490868052210430860704781B0009059
:100B80000549042008600098401E04490860044993
:100B90000020086001B0704710E000E014E000E0C1
:100BA00018E000E080B58CB00B900A910A9840796B
:100BB000C00700285CD0FFE70A980079079000285A
:100BC00004D0FFE7079820280CD018E00B98882164
:100BD0000691022200F0B8F906990B98032200F062
:100BE000B3F919E00B98212109010591022200F0C7
:100BF000ABF905990B98032200F0A6F90CE00B98CD
:100C00000521C9010491022200F09EF904990B9874
:100C1000032200F099F9FFE70B98002202920223C9
:100C20000193114600F0AAF9029A0B98032303934B
:100C3000114600F0A3F90199029B0B980091194607
:100C40001A4600F0D3F9029B03990B9800911946BC
:100C50001A4600F0CBF9019B029A0B98114600F05E
:100C6000ABF9029A039B0B98114600F0A5F9FFE738
:100C70000A98006808900A98007908A908710A98EB
:100C8000807948710B9800F031F80CB080BD0000FD
:100C900081B000900099024A0120885001B070474D
:100CA0000811000082B001900091009B0199034A55
:100CB00088581843885002B07047C046281000007A
:100CC00081B0009000990120C2020248885001B012
:100CD0007047C0460100002681B000900098812135
:100CE00049014058C0B201B07047000080B58AB0D9
:100CF00009900891089800790790002804D0FFE730
:100D00000798202812D029E0099808990968491EF7
:100D100000F0E2F9099888210691002200F014F908
:100D200006990998012200F00FF92AE0099808991C
:100D30000968491E00F0D0F909982D490491002254
:100D400000F002F9049909980122059200F0FCF8DC
:100D500005990998490700F0B1F912E00998089936
:100D60000968490800F0B8F909980521C9010391FB
:100D7000002200F0E9F803990998012200F0E4F854
:100D8000FFE709980023019319461A4600F0F6F888
:100D9000019A099801230293114600F0EFF8019B94
:100DA0000998009319461A4600F020F9019B029910
:100DB0000998009119461A4600F018F9019B099804
:100DC00019461A4600F0F8F8019A029B0998114654
:100DD00000F0F2F80998CB494018089A1179527935
:100DE000114302221143034AFFF7AAFB0AB080BD58
:100DF00001040000BFFF003080B584B00390029171
:100E000003980299496800F067F902980078019008
:100E1000222856D80198810001A040588746C04634
:100E2000B90E0000C30E0000B90E0000C30E000092
:100E3000C30E0000C30E0000C30E0000C30E00006E
:100E4000C30E0000C30E0000C30E0000C30E00005E
:100E5000C30E0000C30E0000C30E0000C30E00004E
:100E6000AD0E0000C30E0000AD0E0000C30E00006A
:100E7000C30E0000C30E0000C30E0000C30E00002E
:100E8000C30E0000C30E0000C30E0000C30E00001E
:100E9000C30E0000C30E0000C30E0000C30E00000E
:100EA000AD0E0000C30E0000AD0E0000039801213E
:100EB000490700F003F905E00398002100F0FEF86F
:100EC00000E0FFE70398029909690022009200F010
:100ED000ADF8009B03980299C9681A4600F04EF8D5
:100EE00002990878097A08430399864A885004B021
:100EF00080BDC04681B000900099B64AB64888507F
:100F000001B0704782B001900091009801991122C0
:100F10001202885002B0704780B584B003900291ED
:100F200001A802700399224A89180091017800985B
:100F30008900401800900098029907229204FFF758
:100F4000FFFA04B080BDC04680B584B00390029122
:100F500001A802700399074A891800910178009846
:100F600089004018009000980299034AFFF7E8FAB8
:100F700004B080BD70180000DB06C00F10B586B04D
:100F800005900491039202A803700599084A8918F4
:100F90000191017801988900401801900198049905
:100FA000039A1143034AFFF7CBFA06B010BDC046BF
:100FB000301800007777020010B586B005900491D4
:100FC000039202A8037005993122D2018918019178
:100FD0000178019889004018019001980499039ABA
:100FE00011438F22FFF7ACFA06B010BD10B587B0E1
:100FF0000091044600980999069405900492039381
:1010000002A801700699084A89180191017801988F
:1010100089004018019005980499084303990843F2
:101020000199086007B010BD5018000084B003900B
:10103000029101A802700399064A8918009101786B
:10104000009889004018009002980099086004B048
:101050007047C0461018000082B0019000910098BF
:1010600000780199784A88500098407801990122C7
:10107000120388500098807801998E4A885002B0F7
:101080007047C04610B586B001930B4601460198E3
:10109000059104A90B8003AB1A8002AA1080059861
:1010A000184C001909881B88194312881143024AF9
:1010B000FFF71EFA06B010BD80FF000080B582B0B9
:1010C0000190009101980F494018009903221207DE
:1010D000FFF736FA02B080BD82B00190009100980F
:1010E0000199024A885002B07047C04608180000B3
:1010F00081B000900099034A885801231843885012
:1011000001B070470418000081B0009000991120D0
:101110000202885801239843885001B0704781B07B
:10112000009000991120020288580123184388502A
:1011300001B0704781B000900099112002028858D8
:1011400001235B041843885001B0704781B00090C0
:10115000009911200202885804231843885001B0D6
:101160007047000081B0009000990120C20202483F
:10117000885001B07047C0460100002680B582B09B
:10118000019000910198FFF7BFFF0198112109021A
:101190004018009A11889378194392881143084A9D
:1011A000FFF7BAF901981F494018009A9179D3794D
:1011B0001943127A11437E22FFF7AEF902B080BDC7
:1011C0001867020081B000900099024A02488850D6
:1011D00001B0704704080000030000B180B584B07E
:1011E00003900291019203980B49401802990B4A0F
:1011F000FFF77EF903980A49401801993F22FFF74B
:1012000077F90399074A8818895801221140FFF796
:101210006FF904B080BDC04610110000FFFF000050
:10122000141100000411000082B001900091009898
:1012300000780199044A8850009840780199012269
:101240001203885002B070470810000080B582B0C9
:101250000190009101981121090240180099032280
:10126000D203FFF745F902B080BD000080B584B01D
:10127000019101460198039102A9087003980D4A53
:10128000801809787022FFF733F904B080BDC0469A
:1012900080B584B0019101460198039102A90870BC
:1012A0000398044A801809780722FFF721F904B04F
:1012B00080BDC0460C11000080B582B003204106FD
:1012C0003F48FFF7D7F93F49019108601120010518
:1012D0006048FFF7CFF9014601983B4A1160C0789A
:1012E0008007002813D5FFE7012081063448FFF767
:1012F00030FA002805D1FFE734490868401E08602D
:1013000004E032490868401C0860FFE719E02D48F6
:10131000C0784007002813D5FFE701204106284880
:10132000FFF717FA002805D1FFE728490868401C95
:10133000086004E025490868401E0860FFE7FFE7F1
:10134000FFE721488078C006002813D5FFE7012079
:1013500001064048FFF7FDF9002805D1FFE71C49C9
:101360000868401E086004E019490868401C0860CD
:10137000FFE719E01448C078C007002813D0FFE742
:10138000012001053348FFF7E4F9002805D1FFE704
:101390000F490868401C086004E00D490868401EB9
:1013A0000860FFE7FFE7FFE7032041060448FFF777
:1013B0000FF9112001052748FFF70AF902B080BD97
:1013C00000000A4010012020140120201C002020D1
:1013D0002000202080B582B0012041031D48FFF786
:1013E000ADF900280FD1FFE70A2000F087FF0120A8
:1013F00041031848FFF7A2F9002803D1FFE70120B5
:10140000019003E0FFE700200190FFE7019802B0A0
:1014100080BDC04680B582B0012001020D48FFF7B3
:101420008DF900280FD1FFE70A2000F067FF0120A7
:1014300001020848FFF782F9002803D1FFE70120E5
:10144000019003E0FFE700200190FFE7019802B060
:1014500080BDC04600200A4080B582B01F480068A9
:10146000002838D1FFE7FFF7D5FF002813D0FFE7AA
:101470001B480168491C01600068062804DBFFE77F
:10148000174901200860FFE700F086FB4B20800031
:1014900000F034FFFFE7FFF79DFF00281AD0FFE7B9
:1014A0000E490120019008600E49002008600E4995
:1014B000086000F033FE019B0C4908600C4A0320D1
:1014C000194600F0E2FA00F033FB4B20800000F0F8
:1014D00015FFFFE7FFE702B080BDC04640002020B7
:1014E0001000202044002020480020201801202047
:1014F000522D000080B586B005AA107004A80170B6
:1015000003A9002008800598087004984870FFE738
:101510001448FFF7ADF98006002801D4FFE7F7E78C
:10152000104801903C21002202230293FFF72CFA7D
:101530000198029A03A9FFF771F9FFE70948FFF73D
:1015400097F94006002801D5FFE7F7E70548FFF7C0
:101550008FF98007002802D5FFE700BEFFE70020D3
:1015600006B080BD00000F4080B58EB000F0FCFDDD
:1015700000200D900C9064480078002807D0FFE709
:101580000C985A380C900D98401C0D90FFE75F485E
:101590000078002807D0FFE70C9819380C900D98B8
:1015A000401C0D90FFE75A480078002804D0FFE760
:1015B0000D98401C0D90FFE756480078002807D092
:1015C000FFE70C9819300C900D98401C0D90FFE728
:1015D00051480078002807D0FFE70C985A300C904B
:1015E0000D98401C0D90FFE70D9801280EDBFFE7DA
:1015F0000C98FEF769FE09900D98FEF765FE01460E
:101600000998FEF707FE45490860FFE7434801686F
:10161000434802900160006842490968FEF7B5FD41
:10162000014602980B914049096806913F490968B3
:101630000491006803903E4800680B99FEF7ADFDE9
:101640000399024604980592FEF7A7FD0599FEF757
:101650004BFD01460698FEF7A0FD0A90354807901D
:1016600000680A99FEF740FD01460798324A089241
:10167000116000680A99FEF788FD014608982F4A14
:10168000116000682E49FEF703FE002804D1FFE731
:1016900029492B480860FFE7274800680021FEF72A
:1016A00005FE002804D1FFE7234900200860FFE77A
:1016B000224800682249FEF7EBFD002804D1FFE72D
:1016C0001E491F480860FFE71C4800680021FEF71C
:1016D000EDFD002804D1FFE7184900200860FFE76E
:1016E00015480068FEF7FBFD019014480068FEF7FE
:1016F000F6FD0146019800F06DFC094800680949B3
:1017000008600EB080BDC0462500202024002020A7
:101710003400202035002020360020203C002020EE
:10172000180020202C002020000020200C00202069
:101730000800202004002020300020203800202035
:1017400000401C4680B5002000F001F880BD80B547
:1017500084B003A9087002A900200870FFE702A85E
:101760000078072825DCFFE70298B030C0B200F00F
:1017700041FD0020009000F03DFD102000F03AFDFA
:10178000009801A90870FFE701A800787F280ADC0B
:10179000FFE703A8007800F038FDFFE70198401C40
:1017A00001A90870F0E7FFE70298401C02A9087041
:1017B000D5E704B080BD704780B584B0FFF7FBFF6C
:1017C0002D48FEF78BFEAE2000F014FD2020039084
:1017D00000F010FD1020019000F00CFDB02000F092
:1017E00009FDC82000F006FD0020029000F002FD77
:1017F000019800F0FFFC402000F0FCFC812000F08C
:10180000F9FCFF2000F0F6FCA12000F0F3FCA6207C
:1018100000F0F0FCA82000F0EDFC3F2000F0EAFC16
:10182000A42000F0E7FCD32000F0E4FC029800F0D4
:10183000E1FCD52000F0DEFCF02000F0DBFCD9203C
:1018400000F0D8FC222000F0D5FCDA2000F0D2FC19
:10185000122000F0CFFCDB2000F0CCFC039800F05D
:10186000C9FC8D2000F0C6FC142000F0C3FCAF20A2
:1018700000F0C0FC04B080BD0024F40080B584B04A
:1018800003AA0192107002A801700298B030C0B291
:1018900000F0B0FC019800780009103000F0AAFCBC
:1018A0000398012108430F21084000F0A3FC04B075
:1018B00080BD000010B58AB009AC207008A8017086
:1018C00007A90A7006A90B700078097805224A4317
:1018D0001A21891A88420EDDFFE706990520484340
:1018E000089940181A3808A90870069909984018EC
:1018F00009A90870FFE70898411E06984000001DDE
:10190000484305A908700998401E04A9087003A956
:101910000020087002AA107007982038087006A8E6
:1019200000780190012804D0FFE70198022821D017
:1019300061E005A8007804A90978FFF79FFF02A9D4
:1019400000200870FFE702A80078052811DCFFE7F7
:1019500003A80078062141432948401802A90978C4
:10196000405C00F052FCFFE70298401C02A908709E
:10197000E9E740E005A8007804A90978FFF77EFFB1
:1019800002A900200870FFE702A80078072810DCF1
:10199000FFE703A80078000102A909784118174859
:1019A000405C00F032FCFFE70298401C02A908707E
:1019B000EAE705A800780499491CC9B2FFF75EFF61
:1019C00002A900200870FFE702A80078072811DCB0
:1019D000FFE703A80078000102A909784018074929
:1019E0004018007A00F011FCFFE70298401C02A9A1
:1019F0000870E9E7FFE70AB010BDC046DE26000028
:101A0000B6240000B0B58AB004460E9809AD2C701B
:101A100008AC2170079206A90B7005A9087004A9EB
:101A200000200870FFE704A8007806A9097888421A
:101A300029DAFFE709A800780290089904A800783D
:101A400009180391079900910699C0434018C1B243
:101A50000A20019000F002FD01460098FEF758FCB4
:101A60000199FEF755FC02980A46039930231A4360
:101A700005AB1B78C9B2FFF71DFFFFE70498401CB8
:101A800004A90870CFE70AB0B0BD10B586B005ACA8
:101A9000207004A80170039202A8037001A900201D
:101AA0000870FFE7039801A90978405C002813D06B
:101AB000FFE705A80078049901AA1378C918039ACA
:101AC000D25C02AB1B78C9B2FFF7F4FEFFE70198C6
:101AD000401C01A90870E5E706B010BD80B584B0D0
:101AE000104A04200290012303931946FFF7CDFF0B
:101AF000029903980C4A1268009002230846FFF7E7
:101B000081FF0298039B094A0721FFF7BEFF029855
:101B1000039B12490A6800930A21FFF773FF04B080
:101B200080BDC0465C2D000044002020602D0000D8
:101B300080B584B0084A022002900123039319461D
:101B4000FFF7A3FF0298039B04490A68009307214B
:101B5000FFF758FF04B080BD642D0000480020202E
:101B600080B50A480068002807D0FFE7094A03202B
:101B700001231946FFF789FF06E0054A03200123E8
:101B80001946FFF782FFFFE780BDC04640002020D6
:101B9000302D0000412D000080B582B0084A01239D
:101BA000019318461946FFF770FF019B054802682C
:101BB000009309211846FFF725FF02B080BDC046FB
:101BC0006A2D00001000202080B58EB00E20082164
:101BD0000291FEF7A5FD65480C900421FEF734FD47
:101BE00002990F20FEF79CFD02990C98FEF72CFD40
:101BF00000230693019300930321089118461A4687
:101C0000FEF772FD069B0899019300930120049052
:101C10001A46FEF769FD0698FEF7FCFC0498FEF7ED
:101C2000F9FC142002210391FEF77AFD0399152097
:101C3000FEF74EFD1E20FEF741FD0498069B009323
:101C40004204059218201946FEF720FD2520FEF7D4
:101C500035FD2620FEF732FD2320FEF72FFD222042
:101C6000FEF72CFD069B0093362019461A46FEF718
:101C70000DFD069B00933A2019461A46FEF706FD15
:101C8000069B00932F2019461A46FEF7FFFC069B81
:101C90000093332019461A46FEF7F8FC069B009382
:101CA0002D2019461A46FEF7F1FC069B00932C20C6
:101CB00019461A46FEF7EAFC069B00932B201946AC
:101CC0001A46FEF7E3FC069B00932A2019461A46A3
:101CD000FEF7DCFC069B0093272019461A46FEF708
:101CE000D5FC1F20FEF7EAFC2020FEF7E7FC2120B0
:101CF000FEF7E4FC059A069B00931D201946FEF7AB
:101D0000C5FC372001030791AF480990FEF76EFC30
:101D100007990998FEF798FC099805218904FEF7B0
:101D200043FD0899099849060A91FEF745FC099870
:101D30000A99FEF77BFC0C98072189030B91FEF7AB
:101D400055FC0B990C98FEF77FFC0C980849FEF7A0
:101D50002BFD0C98112109050D91FEF72DFC0C9817
:101D60000D99FEF763FC0EB080BDC04600200A400E
:101D70000001010080B582B0124994480190FEF73D
:101D8000B7FD019803214902FEF79EFD0198FEF779
:101D900017FD0198FEF790FD01980121FEF7E8FD7F
:101DA000019800210091FEF7CFFD00990198FEF700
:101DB000B9FD0198FEF71AFD0198FEF70DFD02B07E
:101DC00080BDC046CE2C000080B584B01E49D248EC
:101DD0000390FFF741F903981C49FEF7E3FE0398CF
:101DE0000023019319461A46FFF74CF9019B03980B
:101DF000009319461A46FFF7F9F8019A039811461D
:101E0000FFF78AF8019A03981146FFF70FF9019B33
:101E1000039801210291009119461A46FFF7E6F84E
:101E20000199029A0398FFF777F80199029A0398AB
:101E3000FFF7FCF80398FEF72BFF03980321FFF749
:101E400061F804B080BDC046D02C0000D42C000046
:101E500080B582B000200190FEF742FE0120009084
:101E60004002FEF749FE0198FEF754FEFEF720FE01
:101E7000FEF724FE0848FEF7BBFD1020FEF758FED3
:101E8000FEF726FE0198FEF75FFE0098019900F02C
:101E9000F3F902B080BDC046DC2C000080B5012003
:101EA0000006FEF76BFEFEF763FE80BD80B582B0D4
:101EB0000849A8480190FFF7CFF801980649FEF7B6
:101EC0009BFF01980121FEF7EDFE0198FEF7E0FE71
:101ED00002B080BD042D0000082D000080B582B046
:101EE00012493B480190FFF79FF901981049FFF70D
:101EF00045F901980021FFF7A9F9019815212D2234
:101F0000FFF76CF90198FFF715F901987021FFF7B9
:101F1000ADF901980221FFF7BBF90198FFF716F917
:101F20000198FFF7FCF802B080BDC0461C2D0000F0
:101F30001E2D000080B500F015F8FFF745FEFFF7F5
:101F400087FFFFF741FFFFF7B1FFFFF713FFFFF731
:101F5000C5FFFFF7A3FF0249B8220020885480BDC7
:101F60005400202080B586B09B480090FEF708FC06
:101F70009B480190FEF704FC67480290FEF7BAFF09
:101F800074480390FEF7B6FF10480490FEF788FCF3
:101F90000F480590FFF716F90098FEF761FB0198CE
:101FA000FEF75EFB0298FEF78BFE0398FEF788FEB5
:101FB0000498FEF727FC0598FFF7D4F81020FEF7E9
:101FC0008DFA06B080BDC04600000A4000000F40F8
:101FD0000080104080B58EB00D900C910D980128B6
:101FE0001DDBFFE701200A9081037B480B90FEF781
:101FF000CFFB0A990B984903FEF702FB0D980128C5
:1020000003DBFFE70D98099003E00D98404209902B
:10201000FFE7099940480022FFF708F82CE00D98E7
:1020200000281DD5FFE70120079041036A4808906A
:10203000FEF7AEFB079908988903FEF7E1FA0D98C1
:10204000012803DBFFE70D98069003E00D9840425E
:102050000690FFE70699FE480022FEF7E7FF0AE038
:10206000032041035C48FEF7CBFAF94800221146F1
:10207000FEF7DCFFFFE7FFE70C9801281DDBFFE719
:1020800001200490010454480590FEF781FB049957
:1020900005984904FEF7B4FA0C98012803DBFFE722
:1020A0000C98039003E00C9840420390FFE70399DB
:1020B000E7480122FEF7BAFF2CE00C9800281DD556
:1020C000FFE701200190410443480290FEF760FBC6
:1020D000019902980904FEF793FA0C98012803DB92
:1020E000FFE70C98009003E00C9840420090FFE757
:1020F0000099D7480122FEF799FF0AE00320010466
:102100003548FEF77DFAD24800210122FEF78EFF06
:10211000FFE7FFE70EB080BD002086400148006861
:102120007047C04618E000E080B50A48FEF7D4FDCD
:1021300001280DD1FFE7084A1068084908600849DE
:1021400008684042074B1860002010600860FFE7F5
:1021500080BDC046004008401C0020204C002020CC
:10216000200020205000202080B584B00120009065
:10217000410519480390FEF7F7FA014600984A1EF8
:102180009141164A1170C10415480190FEF7ECFA0E
:10219000009902460198531E9A41124B1A70890405
:1021A0000291FEF7E1FA009902460198531E9A4106
:1021B0000D4B1A704904FEF7D7FA029902460398AC
:1021C000531E9A41094B1A70FEF7CEFA411E884100
:1021D0000749087004B080BD00000A402500202097
:1021E00000200A4024002020340020203500202038
:1021F0003600202080B582B0014601A80170017828
:102200000020FFF777F902B080BD80B582B00146AB
:1022100001A8017001784020FFF76CF902B080BD81
:1022200081B001466846017000214056002809D45B
:10223000FFE7684601781F200140012088400249DD
:102240000860FFE701B0704780E200E081B001461E
:102250006846017000214056002809D4FFE768460F
:1022600001781F2001400120884002490860FFE7F3
:1022700001B0704700E100E070B582B0024601A8ED
:102280000270009100214056002816D4FFE7002478
:1022900001A908570322D3431840174A8058095709
:1022A0008C07E50EFF24AC40A043009CA401E4B2DF
:1022B000AC402043194088501AE001A908780F2447
:1022C000204008380322D34318400A4A805800258A
:1022D00049578D07EE0EFF25B540A843009DAD017F
:1022E000EDB2B54028432140083919408850FFE736
:1022F00002B070BD1CED00E000E400E080B582B0EB
:10230000019000200090FFE700980749884208DC10
:10231000FFE7019800F00AF8FFE70098401C0090E2
:10232000F2E702B080BDC046E703000080B586B08A
:10233000059005981E49884203D3FFE71D48059084
:10234000FFE7059950204843059000200090049035
:10235000FFF7E4FE014600980391029001A908707E
:10236000FFE7FFF7DBFE029002980399884204D949
:10237000FFE701A901200870FFE701A80078002805
:1023800007D0FFE703980299401A0B4940180490C0
:1023900004E003980299401A0490FFE70498059915
:1023A000884201D3FFE700E0DBE706B080BDC0460E
:1023B0003433030033330300FFFFFF0080B586B0E2
:1023C0000020039005900490FFF7B4FD2048FEF72D
:1023D0008FFE01200290FFF723FF0298FFF720FFF6
:1023E0000298FFF733FF0298FFF730FF10200190AB
:1023F000FFF716FF0198FFF729FF6420FFF77EFF24
:10240000FFF7DAF9FFF79EF9FFF7C6FB029B114AC7
:1024100003201946FFF739FB03990846FFF7DAFD59
:10242000FFE7FFF719F80C480068002805D0FFE720
:10243000FFF79AF8FDF7E4FF04E000210846FFF7F4
:10244000C9FDFFE7FFF78CFBFFF748FBE9E7C04654
:1024500000208640282D00004000202083B002AAE2
:10246000107001A8017001200090FFE701AA107808
:10247000411E1170002806D0FFE702A800780099DD
:1024800048430090F2E7009803B070470000000056
:1024900002E008C8121F08C1002AFAD170470000E4
:1024A0007047000000000000002001E001C1121F81
:1024B000002AFBD170470000000000000000002F40
:1024C000000000000700070000147F147F140024A0
:1024D0002A7F2A12006264081323003649552250CD
:1024E00000000503000000001C2241000000412202
:1024F0001C000014083E08140008083E08080000EC
:1025000000A06000000808080808000060600000E3
:10251000002010080402003E5149453E0000427F61
:102520004000004261514946002141454B310018AD
:1025300014127F10002745454539003C4A4949306F
:102540000001710905030036494949360006494929
:10255000291E000036360000000056360000000834
:102560001422410000141414141400004122140811
:1025700000020151090600324959513E007C1211F6
:10258000127C007F49494936003E41414122007F8B
:102590004141221C007F49494941007F0909090145
:1025A000003E4149497A007F0808087F0000417FCA
:1025B0004100002040413F01007F08142241007F7C
:1025C00040404040007F020C027F007F0408107FE3
:1025D000003E4141413E007F09090906003E41514C
:1025E000215E007F09192946004649494931000109
:1025F000017F0101003F4040403F001F2040201F5D
:10260000003F4038403F006314081463000708701F
:10261000080700615149454300007F4141000055D2
:102620002A552A55000041417F000004020102049E
:10263000004040404040000001020400002054548B
:102640005478007F484444380038444444200038DB
:102650004444487F00385454541800087E0901024D
:102660000018A4A4A47C007F080404780000447D22
:102670004000004080847D00007F1028440000005E
:10268000417F4000007C04180478007C0804047832
:1026900000384444443800FC24242418001824241E
:1026A00018FC007C0804040800485454542000041A
:1026B0003F444020003C4040207C001C2040201C27
:1026C000003C4030403C004428102844001CA0A09E
:1026D000A07C004464544C441414141414140000DA
:1026E00000000000000000000000000000000000EA
:1026F00000F800000000000000333000000000106F
:102700000C06100C0600000000000000000040C095
:102710007840C0784000043F04043F040400007087
:1027200088FC08300000001820FF211E0000F0087F
:10273000F000E018000000211C031E211E0000F024
:102740000888700000001E2123241927211010166C
:102750000E0000000000000000000000000000006B
:1027600000E01804020000000007182040000002EA
:102770000418E0000000004020180700000040405E
:1027800080F0804040000202010F010202000000C0
:1027900000F0000000000101011F01010100000024
:1027A00000000000000080B0700000000000000089
:1027B0000000000000000001010101010101000012
:1027C00000000000000000303000000000000000A9
:1027D000000080601804006018060100000000E09E
:1027E00010080810E000000F102020100F0000104B
:1027F00010F8000000000020203F202000000070A2
:102800000808088870000030282422213000003099
:102810000888884830000018202020110E00000091
:10282000C02010F8000000070424243F240000F812
:102830000888880808000019212020110E0000E0F7
:10284000108888180000000F112020110E00003899
:102850000808C83808000000003F000000000070B1
:10286000880808887000001C222121221C0000E03A
:1028700010080810E0000000312222110F000000B3
:1028800000C0C00000000000003030000000000068
:1028900000800000000000008060000000000000D8
:1028A0008040201008000001020408102000404071
:1028B00040404040400004040404040404000008B4
:1028C0001020408000000020100804020100007069
:1028D00048080808F0000000003036010000C03051
:1028E000C828E810E0000718272423140B00000074
:1028F000C038E0000000203C23020227382008F8FE
:10290000888888700000203F202020110E00C030F1
:10291000080808083800071820202010080008F8C8
:1029200008080810E000203F202020100F0008F8C1
:102930008888E8081000203F20202320180008F88D
:102940008888E8081000203F200003000000C03005
:1029500008080838000007182020221E020008F886
:1029600008000008F808203F210101213F2000084D
:1029700008F8080800000020203F20200000000088
:102980000808F8080800C08080807F00000008F870
:1029900088C028180800203F20012638200008F8A9
:1029A000080000000000203F20202020300008F810
:1029B000F800F8F80800203F003F003F200008F82A
:1029C00030C00008F808203F200007183F00E01042
:1029D00008080810E0000F10202020100F0008F851
:1029E00008080808F000203F210101010000E01064
:1029F00008080810E0000F18242438504F0008F889
:102A0000888888887000203F2000030C30200070E8
:102A10008808080838000038202121221C001808E6
:102A200008F8080818000000203F2000000008F8FF
:102A300008000008F808001F202020201F00087848
:102A4000880000C83808000007380E010000F808A8
:102A500000F80008F800033C0700073C03000818D2
:102A600068808068180820302C03032C3020083838
:102A7000C800C83808000000203F200000001008EF
:102A80000808C83808002038262120201800000037
:102A900000FE020202000000007F40404000000CE7
:102AA00030C000000000000000010638C000000235
:102AB0000202FE000000004040407F0000000000D5
:102AC00004020202040000000000000000000000F8
:102AD00000000000000080808080808080800002F4
:102AE00002040000000000000000000000000000E0
:102AF0008080808000000019242222223F2008F8D4
:102B0000008080000000003F112020110E00000016
:102B1000008080800000000E1120202011000000A5
:102B200000808088F800000E112020103F20000057
:102B3000808080800000001F22222222130000805B
:102B400080F0888888180020203F202000000000A6
:102B5000808080808000006B94949493600008F8DB
:102B6000008080800000203F210000203F20008066
:102B70009898000000000020203F20200000000066
:102B800000809898000000C08080807F000008F8D6
:102B9000000080808000203F24022D3020000008AB
:102BA00008F8000000000020203F20200000808066
:102BB000808080808000203F20003F20003F808078
:102BC000008080800000203F210000203F20000086
:102BD000808080800000001F202020201F00808037
:102BE00000808000000080FFA12020110E00000066
:102BF000008080808000000E112020A0FF80808057
:102C000080008080800020203F2120000100000003
:102C100080808080800000332424242419000080D8
:102C200080E0808000000000001F202000008080E5
:102C3000000000808000001F202020103F208080A6
:102C400080000080808000010E3008060100808036
:102C50000080008080800F300C030C300F0000805B
:102C60008000808080000020312E0E312000808086
:102C700080000080808080818E70180601000080B6
:102C80008080808080000021302C222130000000D4
:102C90000000807C020200000000003F4040000075
:102CA0000000FF00000000000000FF000000000224
:102CB000027C800000000040403F00000000000651
:102CC00001010202040400000000000000000803EB
:102CD00008000000401F000020000100010000006B
:102CE00000000000000000004000000000000000A4
:102CF00000000000020000000400000001000000CD
:102D00002C00C44108001F0002000000D330000066
:102D100001000000000000000000000008000000AA
:102D2000180000000030000077616974696E670068
:102D30005374617475733A2053746F7070656420B6
:102D4000005374617475733A2052756E6E696E67C4
:102D50002000666F6C6C6F772E2E2E0043313A0088
:102D600043323A00446F6E653A005461726765748D
:102D70003A0066696E6973682073746F70000000B2
:102D8000A02D00000000202018000000902400006A
:102D9000B82D00001800202008110000A824000011
:102DA0000000A0400040CE440000C0400000184198
:082DB00001000000000000001A
:04000005000000C136
:00000001FF
